{
  "contractName": "Voting",
  "abi": [
    {
      "anonymous": false,
      "inputs": [
        {
          "indexed": false,
          "internalType": "address",
          "name": "candidate",
          "type": "address"
        },
        {
          "indexed": false,
          "internalType": "string",
          "name": "electionName",
          "type": "string"
        }
      ],
      "name": "CandidateRegistered",
      "type": "event"
    },
    {
      "anonymous": false,
      "inputs": [
        {
          "indexed": false,
          "internalType": "address",
          "name": "creator",
          "type": "address"
        },
        {
          "indexed": false,
          "internalType": "string",
          "name": "electionName",
          "type": "string"
        }
      ],
      "name": "ElectionCreate",
      "type": "event"
    },
    {
      "anonymous": false,
      "inputs": [
        {
          "indexed": false,
          "internalType": "address",
          "name": "voter",
          "type": "address"
        },
        {
          "indexed": false,
          "internalType": "string",
          "name": "electionName",
          "type": "string"
        }
      ],
      "name": "VoteRegistered",
      "type": "event"
    },
    {
      "inputs": [
        {
          "internalType": "uint256",
          "name": "",
          "type": "uint256"
        }
      ],
      "name": "elections",
      "outputs": [
        {
          "internalType": "string",
          "name": "name",
          "type": "string"
        },
        {
          "internalType": "uint256",
          "name": "registrationDeadline",
          "type": "uint256"
        },
        {
          "internalType": "uint256",
          "name": "votingDeadline",
          "type": "uint256"
        },
        {
          "internalType": "uint256",
          "name": "endingTime",
          "type": "uint256"
        }
      ],
      "stateMutability": "view",
      "type": "function",
      "constant": true
    },
    {
      "inputs": [
        {
          "internalType": "string",
          "name": "_name",
          "type": "string"
        },
        {
          "internalType": "uint256",
          "name": "_registrationDeadline",
          "type": "uint256"
        },
        {
          "internalType": "uint256",
          "name": "_votingDeadline",
          "type": "uint256"
        },
        {
          "internalType": "uint256",
          "name": "_endingTime",
          "type": "uint256"
        }
      ],
      "name": "newElection",
      "outputs": [],
      "stateMutability": "nonpayable",
      "type": "function"
    },
    {
      "inputs": [
        {
          "internalType": "string",
          "name": "electionName",
          "type": "string"
        },
        {
          "internalType": "address",
          "name": "candidateAddress",
          "type": "address"
        }
      ],
      "name": "getElectionCandidate",
      "outputs": [
        {
          "components": [
            {
              "internalType": "string",
              "name": "name",
              "type": "string"
            },
            {
              "internalType": "address",
              "name": "candidateAddress",
              "type": "address"
            },
            {
              "internalType": "bool",
              "name": "isRegisted",
              "type": "bool"
            }
          ],
          "internalType": "struct Voting.Candidate",
          "name": "",
          "type": "tuple"
        }
      ],
      "stateMutability": "view",
      "type": "function",
      "constant": true
    },
    {
      "inputs": [
        {
          "internalType": "string",
          "name": "electionName",
          "type": "string"
        }
      ],
      "name": "getElectionCandidates",
      "outputs": [
        {
          "components": [
            {
              "internalType": "string",
              "name": "name",
              "type": "string"
            },
            {
              "internalType": "address",
              "name": "candidateAddress",
              "type": "address"
            },
            {
              "internalType": "bool",
              "name": "isRegisted",
              "type": "bool"
            }
          ],
          "internalType": "struct Voting.Candidate[]",
          "name": "",
          "type": "tuple[]"
        }
      ],
      "stateMutability": "view",
      "type": "function",
      "constant": true
    },
    {
      "inputs": [
        {
          "internalType": "string",
          "name": "electionName",
          "type": "string"
        },
        {
          "internalType": "string",
          "name": "candidateName",
          "type": "string"
        }
      ],
      "name": "registerCandidate",
      "outputs": [],
      "stateMutability": "nonpayable",
      "type": "function"
    },
    {
      "inputs": [
        {
          "internalType": "string",
          "name": "electionName",
          "type": "string"
        },
        {
          "internalType": "address",
          "name": "canditateAddress",
          "type": "address"
        }
      ],
      "name": "removeCandidate",
      "outputs": [],
      "stateMutability": "nonpayable",
      "type": "function"
    },
    {
      "inputs": [
        {
          "internalType": "string",
          "name": "electionName",
          "type": "string"
        },
        {
          "internalType": "address",
          "name": "canditateAddress",
          "type": "address"
        }
      ],
      "name": "vote",
      "outputs": [],
      "stateMutability": "nonpayable",
      "type": "function"
    }
  ],
  "bytecode": "0x608060405234801561001057600080fd5b50611f56806100206000396000f3fe608060405234801561001057600080fd5b506004361061007d5760003560e01c80635a436c061161005b5780635a436c06146100fe5780635e6fef011461011a578063ece326b61461014d578063f9db321e146101695761007d565b80630dbce4dd1461008257806316f0c0d91461009e5780632499e65c146100ce575b600080fd5b61009c600480360381019061009791906113d4565b610185565b005b6100b860048036038101906100b39190611380565b6104dc565b6040516100c59190611a10565b60405180910390f35b6100e860048036038101906100e3919061133f565b610670565b6040516100f591906118a2565b60405180910390f35b61011860048036038101906101139190611380565b610987565b005b610134600480360381019061012f91906114bb565b610d57565b60405161014494939291906118c4565b60405180910390f35b61016760048036038101906101629190611440565b610e0f565b005b610183600480360381019061017e9190611380565b610ff2565b005b60006001836040516101979190611874565b9081526020016040518091039020549050826040516020016101b99190611874565b6040516020818303038152906040528051906020012060028281548110610209577f4e487b7100000000000000000000000000000000000000000000000000000000600052603260045260246000fd5b90600052602060002001604051602001610223919061188b565b6040516020818303038152906040528051906020012014610279576040517f08c379a0000000000000000000000000000000000000000000000000000000008152600401610270906119f0565b60405180910390fd5b60008060008381526020019081526020016000209050600115158160060160003373ffffffffffffffffffffffffffffffffffffffff1673ffffffffffffffffffffffffffffffffffffffff16815260200190815260200160002060010160149054906101000a900460ff1615151415610328576040517f08c379a000000000000000000000000000000000000000000000000000000000815260040161031f906119b0565b60405180910390fd5b806001015442111561036f576040517f08c379a000000000000000000000000000000000000000000000000000000000815260040161036690611950565b60405180910390fd5b600060405180606001604052808581526020013373ffffffffffffffffffffffffffffffffffffffff16815260200160011515815250905081600401339080600181540180825580915050600190039060005260206000200160009091909190916101000a81548173ffffffffffffffffffffffffffffffffffffffff021916908373ffffffffffffffffffffffffffffffffffffffff160217905550808260060160003373ffffffffffffffffffffffffffffffffffffffff1673ffffffffffffffffffffffffffffffffffffffff168152602001908152602001600020600082015181600001908051906020019061046a929190611191565b5060208201518160010160006101000a81548173ffffffffffffffffffffffffffffffffffffffff021916908373ffffffffffffffffffffffffffffffffffffffff16021790555060408201518160010160146101000a81548160ff0219169083151502179055509050505050505050565b6104e4611217565b60008060006001866040516104f99190611874565b908152602001604051809103902054815260200190815260200160002090508060060160008473ffffffffffffffffffffffffffffffffffffffff1673ffffffffffffffffffffffffffffffffffffffff16815260200190815260200160002060405180606001604052908160008201805461057490611bee565b80601f01602080910402602001604051908101604052809291908181526020018280546105a090611bee565b80156105ed5780601f106105c2576101008083540402835291602001916105ed565b820191906000526020600020905b8154815290600101906020018083116105d057829003601f168201915b505050505081526020016001820160009054906101000a900473ffffffffffffffffffffffffffffffffffffffff1673ffffffffffffffffffffffffffffffffffffffff1673ffffffffffffffffffffffffffffffffffffffff1681526020016001820160149054906101000a900460ff16151515158152505091505092915050565b606060008060006001856040516106879190611874565b90815260200160405180910390205481526020019081526020016000209050600080600090505b82600401805490508110156106de5781806106c890611c51565b92505080806106d690611c51565b9150506106ae565b5060008167ffffffffffffffff811115610721577f4e487b7100000000000000000000000000000000000000000000000000000000600052604160045260246000fd5b60405190808252806020026020018201604052801561075a57816020015b610747611217565b81526020019060019003908161073f5790505b50905060005b836004018054905081101561097b578360060160008560040183815481106107b1577f4e487b7100000000000000000000000000000000000000000000000000000000600052603260045260246000fd5b9060005260206000200160009054906101000a900473ffffffffffffffffffffffffffffffffffffffff1673ffffffffffffffffffffffffffffffffffffffff1673ffffffffffffffffffffffffffffffffffffffff16815260200190815260200160002060405180606001604052908160008201805461083190611bee565b80601f016020809104026020016040519081016040528092919081815260200182805461085d90611bee565b80156108aa5780601f1061087f576101008083540402835291602001916108aa565b820191906000526020600020905b81548152906001019060200180831161088d57829003601f168201915b505050505081526020016001820160009054906101000a900473ffffffffffffffffffffffffffffffffffffffff1673ffffffffffffffffffffffffffffffffffffffff1673ffffffffffffffffffffffffffffffffffffffff1681526020016001820160149054906101000a900460ff16151515158152505082828151811061095d577f4e487b7100000000000000000000000000000000000000000000000000000000600052603260045260246000fd5b6020026020010181905250808061097390611c51565b915050610760565b50809350505050919050565b60006001836040516109999190611874565b9081526020016040518091039020549050826040516020016109bb9190611874565b6040516020818303038152906040528051906020012060028281548110610a0b577f4e487b7100000000000000000000000000000000000000000000000000000000600052603260045260246000fd5b90600052602060002001604051602001610a25919061188b565b6040516020818303038152906040528051906020012014610a7b576040517f08c379a0000000000000000000000000000000000000000000000000000000008152600401610a72906119f0565b60405180910390fd5b600080600083815260200190815260200160002090508060030154421115610ad8576040517f08c379a0000000000000000000000000000000000000000000000000000000008152600401610acf90611910565b60405180910390fd5b8060020154421115610b1f576040517f08c379a0000000000000000000000000000000000000000000000000000000008152600401610b1690611990565b60405180910390fd5b80600101544211158015610b37575080600201544210155b610b76576040517f08c379a0000000000000000000000000000000000000000000000000000000008152600401610b6d90611930565b60405180910390fd5b600115158160070160003373ffffffffffffffffffffffffffffffffffffffff1673ffffffffffffffffffffffffffffffffffffffff16815260200190815260200160002060010160149054906101000a900460ff1615151415610c0f576040517f08c379a0000000000000000000000000000000000000000000000000000000008152600401610c0690611970565b60405180910390fd5b600060405180606001604052803373ffffffffffffffffffffffffffffffffffffffff1681526020018573ffffffffffffffffffffffffffffffffffffffff168152602001600115158152509050808260070160003373ffffffffffffffffffffffffffffffffffffffff1673ffffffffffffffffffffffffffffffffffffffff16815260200190815260200160002060008201518160000160006101000a81548173ffffffffffffffffffffffffffffffffffffffff021916908373ffffffffffffffffffffffffffffffffffffffff16021790555060208201518160010160006101000a81548173ffffffffffffffffffffffffffffffffffffffff021916908373ffffffffffffffffffffffffffffffffffffffff16021790555060408201518160010160146101000a81548160ff0219169083151502179055509050505050505050565b6000602052806000526040600020600091509050806000018054610d7a90611bee565b80601f0160208091040260200160405190810160405280929190818152602001828054610da690611bee565b8015610df35780601f10610dc857610100808354040283529160200191610df3565b820191906000526020600020905b815481529060010190602001808311610dd657829003601f168201915b5050505050908060010154908060020154908060030154905084565b60005b600280549050811015610f045784604051602001610e309190611874565b6040516020818303038152906040528051906020012060028281548110610e80577f4e487b7100000000000000000000000000000000000000000000000000000000600052603260045260246000fd5b90600052602060002001604051602001610e9a919061188b565b604051602081830303815290604052805190602001201415610ef1576040517f08c379a0000000000000000000000000000000000000000000000000000000008152600401610ee8906119d0565b60405180910390fd5b8080610efc90611c51565b915050610e12565b5060008060006003548152602001908152602001600020905084816000019080519060200190610f35929190611191565b508342610f429190611b0e565b81600101819055508242610f569190611b0e565b81600201819055508142610f6a9190611b0e565b8160030181905550600354600186604051610f859190611874565b908152602001604051809103902081905550600285908060018154018082558091505060019003906000526020600020016000909190919091509080519060200190610fd2929190611191565b5060036000815480929190610fe690611c51565b91905055505050505050565b60006001836040516110049190611874565b9081526020016040518091039020549050826040516020016110269190611874565b6040516020818303038152906040528051906020012060028281548110611076577f4e487b7100000000000000000000000000000000000000000000000000000000600052603260045260246000fd5b90600052602060002001604051602001611090919061188b565b60405160208183030381529060405280519060200120146110e6576040517f08c379a00000000000000000000000000000000000000000000000000000000081526004016110dd906119f0565b60405180910390fd5b600080600083815260200190815260200160002090508060060160008473ffffffffffffffffffffffffffffffffffffffff1673ffffffffffffffffffffffffffffffffffffffff1681526020019081526020016000206000808201600061114e9190611250565b6001820160006101000a81549073ffffffffffffffffffffffffffffffffffffffff02191690556001820160146101000a81549060ff0219169055505050505050565b82805461119d90611bee565b90600052602060002090601f0160209004810192826111bf5760008555611206565b82601f106111d857805160ff1916838001178555611206565b82800160010185558215611206579182015b828111156112055782518255916020019190600101906111ea565b5b5090506112139190611290565b5090565b604051806060016040528060608152602001600073ffffffffffffffffffffffffffffffffffffffff1681526020016000151581525090565b50805461125c90611bee565b6000825580601f1061126e575061128d565b601f01602090049060005260206000209081019061128c9190611290565b5b50565b5b808211156112a9576000816000905550600101611291565b5090565b60006112c06112bb84611a57565b611a32565b9050828152602081018484840111156112d857600080fd5b6112e3848285611bac565b509392505050565b6000813590506112fa81611ef2565b92915050565b600082601f83011261131157600080fd5b81356113218482602086016112ad565b91505092915050565b60008135905061133981611f09565b92915050565b60006020828403121561135157600080fd5b600082013567ffffffffffffffff81111561136b57600080fd5b61137784828501611300565b91505092915050565b6000806040838503121561139357600080fd5b600083013567ffffffffffffffff8111156113ad57600080fd5b6113b985828601611300565b92505060206113ca858286016112eb565b9150509250929050565b600080604083850312156113e757600080fd5b600083013567ffffffffffffffff81111561140157600080fd5b61140d85828601611300565b925050602083013567ffffffffffffffff81111561142a57600080fd5b61143685828601611300565b9150509250929050565b6000806000806080858703121561145657600080fd5b600085013567ffffffffffffffff81111561147057600080fd5b61147c87828801611300565b945050602061148d8782880161132a565b935050604061149e8782880161132a565b92505060606114af8782880161132a565b91505092959194509250565b6000602082840312156114cd57600080fd5b60006114db8482850161132a565b91505092915050565b60006114f083836117c5565b905092915050565b61150181611b64565b82525050565b600061151282611aad565b61151c8185611ad0565b93508360208202850161152e85611a88565b8060005b8581101561156a578484038952815161154b85826114e4565b945061155683611ac3565b925060208a01995050600181019050611532565b50829750879550505050505092915050565b61158581611b76565b82525050565b600061159682611ab8565b6115a08185611ae1565b93506115b0818560208601611bbb565b6115b981611d27565b840191505092915050565b60006115cf82611ab8565b6115d98185611af2565b93506115e9818560208601611bbb565b6115f281611d27565b840191505092915050565b600061160882611ab8565b6116128185611b03565b9350611622818560208601611bbb565b80840191505092915050565b6000815461163b81611bee565b6116458186611b03565b945060018216600081146116605760018114611671576116a4565b60ff198316865281860193506116a4565b61167a85611a98565b60005b8381101561169c5781548189015260018201915060208101905061167d565b838801955050505b50505092915050565b60006116ba601b83611af2565b91506116c582611d38565b602082019050919050565b60006116dd602183611af2565b91506116e882611d61565b604082019050919050565b6000611700601e83611af2565b915061170b82611db0565b602082019050919050565b6000611723601883611af2565b915061172e82611dd9565b602082019050919050565b6000611746601683611af2565b915061175182611e02565b602082019050919050565b6000611769601d83611af2565b915061177482611e2b565b602082019050919050565b600061178c602683611af2565b915061179782611e54565b604082019050919050565b60006117af602183611af2565b91506117ba82611ea3565b604082019050919050565b600060608301600083015184820360008601526117e2828261158b565b91505060208301516117f760208601826114f8565b50604083015161180a604086018261157c565b508091505092915050565b60006060830160008301518482036000860152611832828261158b565b915050602083015161184760208601826114f8565b50604083015161185a604086018261157c565b508091505092915050565b61186e81611ba2565b82525050565b600061188082846115fd565b915081905092915050565b6000611897828461162e565b915081905092915050565b600060208201905081810360008301526118bc8184611507565b905092915050565b600060808201905081810360008301526118de81876115c4565b90506118ed6020830186611865565b6118fa6040830185611865565b6119076060830184611865565b95945050505050565b60006020820190508181036000830152611929816116ad565b9050919050565b60006020820190508181036000830152611949816116d0565b9050919050565b60006020820190508181036000830152611969816116f3565b9050919050565b6000602082019050818103600083015261198981611716565b9050919050565b600060208201905081810360008301526119a981611739565b9050919050565b600060208201905081810360008301526119c98161175c565b9050919050565b600060208201905081810360008301526119e98161177f565b9050919050565b60006020820190508181036000830152611a09816117a2565b9050919050565b60006020820190508181036000830152611a2a8184611815565b905092915050565b6000611a3c611a4d565b9050611a488282611c20565b919050565b6000604051905090565b600067ffffffffffffffff821115611a7257611a71611cf8565b5b611a7b82611d27565b9050602081019050919050565b6000819050602082019050919050565b60008190508160005260206000209050919050565b600081519050919050565b600081519050919050565b6000602082019050919050565b600082825260208201905092915050565b600082825260208201905092915050565b600082825260208201905092915050565b600081905092915050565b6000611b1982611ba2565b9150611b2483611ba2565b9250827fffffffffffffffffffffffffffffffffffffffffffffffffffffffffffffffff03821115611b5957611b58611c9a565b5b828201905092915050565b6000611b6f82611b82565b9050919050565b60008115159050919050565b600073ffffffffffffffffffffffffffffffffffffffff82169050919050565b6000819050919050565b82818337600083830152505050565b60005b83811015611bd9578082015181840152602081019050611bbe565b83811115611be8576000848401525b50505050565b60006002820490506001821680611c0657607f821691505b60208210811415611c1a57611c19611cc9565b5b50919050565b611c2982611d27565b810181811067ffffffffffffffff82111715611c4857611c47611cf8565b5b80604052505050565b6000611c5c82611ba2565b91507fffffffffffffffffffffffffffffffffffffffffffffffffffffffffffffffff821415611c8f57611c8e611c9a565b5b600182019050919050565b7f4e487b7100000000000000000000000000000000000000000000000000000000600052601160045260246000fd5b7f4e487b7100000000000000000000000000000000000000000000000000000000600052602260045260246000fd5b7f4e487b7100000000000000000000000000000000000000000000000000000000600052604160045260246000fd5b6000601f19601f8301169050919050565b7f456c656374696f6e2068617320616c726561647920656e6465642e0000000000600082015250565b7f43616e6469646174657320617265207374696c6c207265676973746572696e6760008201527f2e00000000000000000000000000000000000000000000000000000000000000602082015250565b7f526567697374726174696f6e20706572696f642068617320656e6465642e0000600082015250565b7f566f7465722068617320616c726561647920766f7465642e0000000000000000600082015250565b7f566f74696e6720706572696f64206973206f7665722e00000000000000000000600082015250565b7f43616e64696461746520616c726561647920726567697374657265642e000000600082015250565b7f456c656374696f6e20776974682074686174206e616d6520616c72656164792060008201527f6578697374730000000000000000000000000000000000000000000000000000602082015250565b7f4e6f20656c656374696f6e20776974682074686174206e616d6520666f756e6460008201527f2e00000000000000000000000000000000000000000000000000000000000000602082015250565b611efb81611b64565b8114611f0657600080fd5b50565b611f1281611ba2565b8114611f1d57600080fd5b5056fea2646970667358221220dbe948788916dc3c7365bd3319b37e4f17d79e92be62360a3edfc77f2a76d3f964736f6c63430008040033",
  "immutableReferences": {},
  "source": "// SPDX-License-Identifier: GPL-3.0\n\npragma solidity ^0.8.4;\n\n// Create a dapp for voting where all of the votes and candidate registration happens on chain.\n// Allow anyone to start an election with a registration period, voting period, and ending time.\n// Allow anyone to sign up as a candidate during the registration period, and allow anyone to vote once during the voting period.\n// Create a front end where voters can see the results and know how long is left in the election.\n\ncontract Voting {\n    event ElectionCreate(address creator, string electionName);\n    event CandidateRegistered(address candidate, string electionName);\n    event VoteRegistered(address voter, string electionName);\n\n    struct Voter {\n        address voterAddress;\n        address candidateAddress;\n        bool hasVoted;\n    }\n\n    struct Candidate {\n        string name;\n        address candidateAddress;\n        bool isRegisted;\n    }\n\n    struct Election {\n        string name;\n        uint registrationDeadline; // In seconds\n        uint votingDeadline; // In seconds\n        uint endingTime; // In seconds\n        address[] candidateList;\n        address[] voterList;\n        mapping(address => Candidate) candidates;\n        mapping(address => Voter) voters;\n    }\n    mapping(uint => Election) public elections;\n    mapping(string => uint) private electionNameMap;\n    string[] electionList;\n\n    uint electionIndex;\n\n    function newElection(string memory _name, uint _registrationDeadline, uint _votingDeadline, uint _endingTime) public {\n        for (uint i = 0; i < electionList.length; i++) {\n            require(\n                keccak256(abi.encodePacked(electionList[i])) != keccak256(abi.encodePacked(_name)), \n                'Election with that name already exists'\n            );\n        }\n\n        Election storage election = elections[electionIndex];\n\n        election.name = _name;\n        election.registrationDeadline = block.timestamp + _registrationDeadline;\n        election.votingDeadline = block.timestamp + _votingDeadline;\n        election.endingTime = block.timestamp + _endingTime;\n\n        electionNameMap[_name] = electionIndex;\n        electionList.push(_name);\n\n        electionIndex++;\n    }\n\n    function getElectionCandidate(string memory electionName, address candidateAddress) public view returns (Candidate memory) {\n        Election storage e = elections[electionNameMap[electionName]];\n\n        return(e.candidates[candidateAddress]);\n    }\n\n    function getElectionCandidates(string memory electionName) public view returns (Candidate[] memory) {\n        Election storage e = elections[electionNameMap[electionName]];\n        uint256 candidateCount;\n\n        // Determine number of candidates in an Election\n        for (uint i = 0; i < e.candidateList.length; i++) {\n            candidateCount++;\n        }\n\n        // Create fixed length array to store all the candidates\n        Candidate[] memory result = new Candidate[](candidateCount);\n\n        // Fill in the result array with all the candidates\n        for (uint i = 0; i < e.candidateList.length; i++) {\n            result[i] = (e.candidates[e.candidateList[i]]);\n        }\n\n        return result;\n    }\n\n    function registerCandidate(string memory electionName, string memory candidateName) public {\n        uint index = electionNameMap[electionName];\n\n        require(keccak256(abi.encodePacked(electionList[index])) == keccak256(abi.encodePacked(electionName)), 'No election with that name found.');\n\n        Election storage e = elections[index];\n\n        require(e.candidates[msg.sender].isRegisted != true, 'Candidate already registered.');\n\n        require(block.timestamp <= e.registrationDeadline, 'Registration period has ended.');\n\n        Candidate memory c = Candidate(candidateName, msg.sender, true);\n\n        e.candidateList.push(msg.sender);\n        e.candidates[msg.sender] = c;\n    }\n\n    function removeCandidate(string memory electionName, address canditateAddress) public {\n        uint index = electionNameMap[electionName];\n\n        require(keccak256(abi.encodePacked(electionList[index])) == keccak256(abi.encodePacked(electionName)), 'No election with that name found.');\n\n        Election storage e = elections[index];\n\n        delete e.candidates[canditateAddress];\n    }\n\n    function vote(string memory electionName, address canditateAddress) public {\n        uint index = electionNameMap[electionName];\n\n        require(keccak256(abi.encodePacked(electionList[index])) == keccak256(abi.encodePacked(electionName)), 'No election with that name found.');\n\n        Election storage e = elections[index];\n\n        require(block.timestamp <= e.endingTime, 'Election has already ended.');\n        require(block.timestamp <= e.votingDeadline, 'Voting period is over.');\n        require(block.timestamp <= e.registrationDeadline && block.timestamp >= e.votingDeadline, 'Candidates are still registering.');\n\n        require(e.voters[msg.sender].hasVoted != true, 'Voter has already voted.');\n\n        Voter memory v = Voter(msg.sender, canditateAddress, true);\n\n        e.voters[msg.sender] = v;\n    }\n\n}\n",
  "sourcePath": "/Users/aclapinpepin/code/ethereum-portfolio/voting/contracts/Voting.sol",
  "compiler": {
    "name": "solc",
    "version": "0.8.4+commit.c7e474f2.Emscripten.clang"
  },
  "schemaVersion": "3.4.1",
  "updatedAt": "2021-06-01T14:34:12.553Z",
  "networkType": "ethereum",
  "devdoc": {
    "kind": "dev",
    "methods": {},
    "version": 1
  },
  "userdoc": {
    "kind": "user",
    "methods": {},
    "version": 1
  }
}